{
  "_format": "hh-sol-artifact-1",
  "contractName": "VN",
  "sourceName": "contracts/VN.sol",
  "abi": [
    {
      "inputs": [],
      "stateMutability": "nonpayable",
      "type": "constructor"
    },
    {
      "inputs": [],
      "name": "accountAssign",
      "outputs": [],
      "stateMutability": "nonpayable",
      "type": "function"
    },
    {
      "inputs": [
        {
          "internalType": "uint256",
          "name": "",
          "type": "uint256"
        }
      ],
      "name": "currencies",
      "outputs": [
        {
          "internalType": "uint16",
          "name": "currencyNumber",
          "type": "uint16"
        },
        {
          "internalType": "uint16",
          "name": "totalValidators",
          "type": "uint16"
        }
      ],
      "stateMutability": "view",
      "type": "function"
    },
    {
      "inputs": [
        {
          "internalType": "uint16",
          "name": "_currencyNumber",
          "type": "uint16"
        }
      ],
      "name": "currencyExist",
      "outputs": [
        {
          "internalType": "bool",
          "name": "",
          "type": "bool"
        }
      ],
      "stateMutability": "view",
      "type": "function"
    },
    {
      "inputs": [
        {
          "internalType": "uint16",
          "name": "_currencyNumber",
          "type": "uint16"
        }
      ],
      "name": "getRoster",
      "outputs": [
        {
          "internalType": "address[]",
          "name": "addresses",
          "type": "address[]"
        }
      ],
      "stateMutability": "view",
      "type": "function"
    },
    {
      "inputs": [
        {
          "internalType": "uint16",
          "name": "_currencyEnrolled",
          "type": "uint16"
        }
      ],
      "name": "register",
      "outputs": [],
      "stateMutability": "nonpayable",
      "type": "function"
    },
    {
      "inputs": [
        {
          "internalType": "uint16",
          "name": "_currencyNumber",
          "type": "uint16"
        }
      ],
      "name": "validatorEnrolled",
      "outputs": [],
      "stateMutability": "nonpayable",
      "type": "function"
    },
    {
      "inputs": [
        {
          "internalType": "address",
          "name": "",
          "type": "address"
        }
      ],
      "name": "validatorRegister",
      "outputs": [
        {
          "internalType": "uint16",
          "name": "currencyEnrolled",
          "type": "uint16"
        }
      ],
      "stateMutability": "view",
      "type": "function"
    }
  ],
  "bytecode": "0x60806040523480156200001157600080fd5b506200004160405180606001604052806021815260200162001628602191396200036660201b620007c71760201c565b336000806101000a81548173ffffffffffffffffffffffffffffffffffffffff021916908373ffffffffffffffffffffffffffffffffffffffff160217905550606060016040518060600160405280600161ffff168152602001838152602001600061ffff16815250908060018154018082558091505060019003906000526020600020906003020160009091909190915060008201518160000160006101000a81548161ffff021916908361ffff16021790555060208201518160010190805190602001906200011492919062000467565b5060408201518160020160006101000a81548161ffff021916908361ffff160217905550505060016040518060600160405280600261ffff168152602001838152602001600061ffff16815250908060018154018082558091505060019003906000526020600020906003020160009091909190915060008201518160000160006101000a81548161ffff021916908361ffff1602179055506020820151816001019080519060200190620001cb92919062000467565b5060408201518160020160006101000a81548161ffff021916908361ffff160217905550505060016040518060600160405280600361ffff168152602001838152602001600061ffff16815250908060018154018082558091505060019003906000526020600020906003020160009091909190915060008201518160000160006101000a81548161ffff021916908361ffff16021790555060208201518160010190805190602001906200028292919062000467565b5060408201518160020160006101000a81548161ffff021916908361ffff160217905550505060016040518060600160405280600461ffff168152602001838152602001600061ffff16815250908060018154018082558091505060019003906000526020600020906003020160009091909190915060008201518160000160006101000a81548161ffff021916908361ffff16021790555060208201518160010190805190602001906200033992919062000467565b5060408201518160020160006101000a81548161ffff021916908361ffff1602179055505050506200060e565b62000406816040516024016200037d9190620005bb565b6040516020818303038152906040527f41304fac000000000000000000000000000000000000000000000000000000007bffffffffffffffffffffffffffffffffffffffffffffffffffffffff19166020820180517bffffffffffffffffffffffffffffffffffffffffffffffffffffffff83818316178352505050506200040960201b60201c565b50565b6200042f816200042a6200043260201b62000860176200045360201b60201c565b60201c565b50565b60006a636f6e736f6c652e6c6f679050600080835160208501845afa505050565b620004f660201b620009de17819050919050565b828054828255906000526020600020908101928215620004e3579160200282015b82811115620004e25782518260006101000a81548173ffffffffffffffffffffffffffffffffffffffff021916908373ffffffffffffffffffffffffffffffffffffffff1602179055509160200191906001019062000488565b5b509050620004f2919062000502565b5090565b62000500620005df565b565b5b808211156200051d57600081600090555060010162000503565b5090565b600081519050919050565b600082825260208201905092915050565b60005b838110156200055d57808201518184015260208101905062000540565b60008484015250505050565b6000601f19601f8301169050919050565b6000620005878262000521565b6200059381856200052c565b9350620005a58185602086016200053d565b620005b08162000569565b840191505092915050565b60006020820190508181036000830152620005d781846200057a565b905092915050565b7f4e487b7100000000000000000000000000000000000000000000000000000000600052605160045260246000fd5b61100a806200061e6000396000f3fe608060405234801561001057600080fd5b506004361061007d5760003560e01c8063bb80edb91161005b578063bb80edb9146100fe578063bf476b931461011a578063db2063a41461014a578063f6d1c271146101545761007d565b806325a394761461008257806325a4f477146100b257806348b9cb31146100e2575b600080fd5b61009c60048036038101906100979190610a4b565b610185565b6040516100a99190610a95565b60405180910390f35b6100cc60048036038101906100c79190610adc565b6101b1565b6040516100d99190610bc7565b60405180910390f35b6100fc60048036038101906100f79190610adc565b61031b565b005b61011860048036038101906101139190610adc565b6104c1565b005b610134600480360381019061012f9190610adc565b610653565b6040516101419190610c04565b60405180910390f35b6101526106da565b005b61016e60048036038101906101699190610c55565b610777565b60405161017c929190610c82565b60405180910390f35b60026020528060005260406000206000915090508060000160009054906101000a900461ffff16905081565b606060005b6001805490508161ffff1610156102d6578261ffff1660018261ffff16815481106101e4576101e3610cab565b5b906000526020600020906003020160000160009054906101000a900461ffff1661ffff16036102c35760018161ffff168154811061022557610224610cab565b5b90600052602060002090600302016001018054806020026020016040519081016040528092919081815260200182805480156102b657602002820191906000526020600020905b8160009054906101000a900473ffffffffffffffffffffffffffffffffffffffff1673ffffffffffffffffffffffffffffffffffffffff168152602001906001019080831161026c575b5050505050915050610316565b80806102ce90610d09565b9150506101b6565b506103156040518060400160405280601b81526020017f546861742063757272656e637920646f65736e277420657869737400000000008152506107c7565b5b919050565b60005b6001805490508161ffff1610156104bd578161ffff1660018261ffff168154811061034c5761034b610cab565b5b906000526020600020906003020160000160009054906101000a900461ffff1661ffff161480156103b85750603260018261ffff168154811061039257610391610cab565b5b906000526020600020906003020160020160009054906101000a900461ffff1661ffff16105b156104aa5760018161ffff16815481106103d5576103d4610cab565b5b9060005260206000209060030201600201600081819054906101000a900461ffff168092919061040490610d09565b91906101000a81548161ffff021916908361ffff1602179055505060018161ffff168154811061043757610436610cab565b5b9060005260206000209060030201600101339080600181540180825580915050600190039060005260206000200160009091909190916101000a81548173ffffffffffffffffffffffffffffffffffffffff021916908373ffffffffffffffffffffffffffffffffffffffff1602179055505b80806104b590610d09565b91505061031e565b5050565b600115156104ce82610653565b151514610510576040517f08c379a000000000000000000000000000000000000000000000000000000000815260040161050790610d90565b60405180910390fd5b6000600260003373ffffffffffffffffffffffffffffffffffffffff1673ffffffffffffffffffffffffffffffffffffffff16815260200190815260200160002060000160009054906101000a900461ffff1661ffff16146105a7576040517f08c379a000000000000000000000000000000000000000000000000000000000815260040161059e90610e22565b60405180910390fd5b80600260003373ffffffffffffffffffffffffffffffffffffffff1673ffffffffffffffffffffffffffffffffffffffff16815260200190815260200160002060000160006101000a81548161ffff021916908361ffff16021790555061060d8161031b565b6106506040518060400160405280601b81526020017f596f752068617665206265656e20656e726f6c6c656420746f3a2000000000008152508261ffff16610881565b50565b600080600090505b6001805490508161ffff1610156106cf578261ffff1660018261ffff168154811061068957610688610cab565b5b906000526020600020906003020160000160009054906101000a900461ffff1661ffff16036106bc5760019150506106d5565b80806106c790610d09565b91505061065b565b50600090505b919050565b6040518060200160405280600061ffff16815250600260003373ffffffffffffffffffffffffffffffffffffffff1673ffffffffffffffffffffffffffffffffffffffff16815260200190815260200160002060008201518160000160006101000a81548161ffff021916908361ffff160217905550905050610775604051806080016040528060448152602001610f91604491393361091d565b565b6001818154811061078757600080fd5b90600052602060002090600302016000915090508060000160009054906101000a900461ffff16908060020160009054906101000a900461ffff16905082565b61085d816040516024016107db9190610ec1565b6040516020818303038152906040527f41304fac000000000000000000000000000000000000000000000000000000007bffffffffffffffffffffffffffffffffffffffffffffffffffffffff19166020820180517bffffffffffffffffffffffffffffffffffffffffffffffffffffffff83818316178352505050506109b9565b50565b60006a636f6e736f6c652e6c6f679050600080835160208501845afa505050565b6109198282604051602401610897929190610ef2565b6040516020818303038152906040527fb60e72cc000000000000000000000000000000000000000000000000000000007bffffffffffffffffffffffffffffffffffffffffffffffffffffffff19166020820180517bffffffffffffffffffffffffffffffffffffffffffffffffffffffff83818316178352505050506109b9565b5050565b6109b58282604051602401610933929190610f31565b6040516020818303038152906040527f319af333000000000000000000000000000000000000000000000000000000007bffffffffffffffffffffffffffffffffffffffffffffffffffffffff19166020820180517bffffffffffffffffffffffffffffffffffffffffffffffffffffffff83818316178352505050506109b9565b5050565b6109d0816109c86108606109d3565b63ffffffff16565b50565b6109de819050919050565b6109e6610f61565b565b600080fd5b600073ffffffffffffffffffffffffffffffffffffffff82169050919050565b6000610a18826109ed565b9050919050565b610a2881610a0d565b8114610a3357600080fd5b50565b600081359050610a4581610a1f565b92915050565b600060208284031215610a6157610a606109e8565b5b6000610a6f84828501610a36565b91505092915050565b600061ffff82169050919050565b610a8f81610a78565b82525050565b6000602082019050610aaa6000830184610a86565b92915050565b610ab981610a78565b8114610ac457600080fd5b50565b600081359050610ad681610ab0565b92915050565b600060208284031215610af257610af16109e8565b5b6000610b0084828501610ac7565b91505092915050565b600081519050919050565b600082825260208201905092915050565b6000819050602082019050919050565b610b3e81610a0d565b82525050565b6000610b508383610b35565b60208301905092915050565b6000602082019050919050565b6000610b7482610b09565b610b7e8185610b14565b9350610b8983610b25565b8060005b83811015610bba578151610ba18882610b44565b9750610bac83610b5c565b925050600181019050610b8d565b5085935050505092915050565b60006020820190508181036000830152610be18184610b69565b905092915050565b60008115159050919050565b610bfe81610be9565b82525050565b6000602082019050610c196000830184610bf5565b92915050565b6000819050919050565b610c3281610c1f565b8114610c3d57600080fd5b50565b600081359050610c4f81610c29565b92915050565b600060208284031215610c6b57610c6a6109e8565b5b6000610c7984828501610c40565b91505092915050565b6000604082019050610c976000830185610a86565b610ca46020830184610a86565b9392505050565b7f4e487b7100000000000000000000000000000000000000000000000000000000600052603260045260246000fd5b7f4e487b7100000000000000000000000000000000000000000000000000000000600052601160045260246000fd5b6000610d1482610a78565b915061ffff8203610d2857610d27610cda565b5b600182019050919050565b600082825260208201905092915050565b7f54686520636f7572736520646f65736e27742065786973740000000000000000600082015250565b6000610d7a601883610d33565b9150610d8582610d44565b602082019050919050565b60006020820190508181036000830152610da981610d6d565b9050919050565b7f596f752063616e206f6e6c7920656e726f6c6c20696e206f6e6520637572726560008201527f6e63790000000000000000000000000000000000000000000000000000000000602082015250565b6000610e0c602383610d33565b9150610e1782610db0565b604082019050919050565b60006020820190508181036000830152610e3b81610dff565b9050919050565b600081519050919050565b60005b83811015610e6b578082015181840152602081019050610e50565b60008484015250505050565b6000601f19601f8301169050919050565b6000610e9382610e42565b610e9d8185610d33565b9350610ead818560208601610e4d565b610eb681610e77565b840191505092915050565b60006020820190508181036000830152610edb8184610e88565b905092915050565b610eec81610c1f565b82525050565b60006040820190508181036000830152610f0c8185610e88565b9050610f1b6020830184610ee3565b9392505050565b610f2b81610a0d565b82525050565b60006040820190508181036000830152610f4b8185610e88565b9050610f5a6020830184610f22565b9392505050565b7f4e487b7100000000000000000000000000000000000000000000000000000000600052605160045260246000fdfe596f7520617265206e6f7720696e207468652073797374656d2e2050726f6365656420746f20656e726f6c6c6d656e742e2041737369676e656420616464726573733a20a2646970667358221220d7ad78574788404280b557f9869d40bf31dfa5afe5cdb9e0bbed502ad01a7a2f64736f6c6343000812003357656c636f6d6520746f2056616c696461746f72204e6f64652073797374656d2e",
  "linkReferences": {},
  "deployedLinkReferences": {}
}